:1000030058203D200059203D2000546F756368201F
:10001300746F20646973706C617920746865206300
:100023006F6F7264696E6174650058203D203030D3
:1000330030300059203D203030303000C9EEDBDA5B
:10004300D0F1C8D5B6ABB7BDBFC6BCBCD3D0CFDE2D
:10005300B9ABCBBE0054454C3A3735352D33333528
:100063003033383734204641583A3735352D33331A
:10007300353037363432005757572E4255592D44B1
:100083004953504C41592E434F4D00452D6D6169E5
:100093006C3A6D61726B6574406C63642D6368695F
:1000A3006E612E636F6D0041443A526F6F6D20365F
:1000B300472C4275696C64696E672041312C5A681C
:1000C300756A69616E67205371756172652C5A6830
:1000D3006F6E6778696E204368656E672C4C6F6E30
:1000E3006767616E672044697374726963742C2057
:1000F30020202020202020202020202020202020FD
:1001030020202020205368656E5A68656E2C436852
:10011300696E612E0045522D5446544D3038302DB2
:1001230032A3AC4F7074696F6E616C204368696E63
:10013300657365202F20456E676C6973682063685B
:1001430061726163746572206C6962726172792C89
:1001530020204D6963726F534420636F72642C4691
:10016300616C73682E466F6E7420537570706F7276
:100173007420322F332F342074696D6573207A6FA6
:100183006F6D2E2020202020537570706F7274388D
:100193002F31362D62697420383038302F3638309D
:1001A3003020536572696573206275732C537570C3
:1001B300706F72742073657269616C20332F3477AA
:1001C3006972652053504920696E74657266616374
:1001D300652C49324320696E746572666163652ECE
:1001E300426C6F636B205472616E73666572204557
:1001F3006E67696E652028425445292053757070D7
:100203006F727473202077697468203244A3AC47FB
:10021300656F6D6574727920416363656C657261A6
:1002230074656420477261706869637320456E6703
:10023300696E652C537570706F727420444D412044
:100243004469726563742041636365737320464C2C
:10025300415348A1A3005368656E5A68656E2045F3
:10026300617374526973696E6720546563686E6F56
:100273006C6F6779202E3B4C544400000000000053
:10028300000000000000000000000000000000006B
:10029300000000000000000000000000000000005B
:1002A300000000000000000000000000000000004B
:1002B30000000000000000000000000000000060DB
:1002C3000000000000000000000000000001FC002E
:1002D30000000000000000000000000003FF000019
:1002E300000000000000000000000003FFC0000049
:1002F3000000000000000000000003EFE000000029
:1003030000000000000000000003C1F8000000002E
:10031300000000000000000003C07C00000000009B
:100323000000000000000003C03E000000000000C9
:10033300000000000001E1C01F00000000000000F9
:10034300000000000FFFE007800000000000000035
:100353000000000FFFE003C00000000000000000E9
:1003630000000E7FF001E00000000000000000002C
:10037300000E03F000E00000000000000000000099
:100383000E00780070000000000000000000000E66
:10039300001E0038000000000000000000000702FB
:1003A30007001C000000000000000000000707C158
:1003B300C01E000000000000000000000780F8607D
:1003C3000F0000000000000000003FE3800E38072C
:1003D300000000000000000003FFFFC0039C038037
:1003E300000000000000000FFFFFC001C603C000B3
:1003F3000000000000007FFFFFE0007301E0000049
:100403000000000001FFE01FE0003981E000000070
:1004130000000007FE0003F0039CC0F00000000092
:1004230000000FF00000F801FE6070000000000003
:10043300001FC000003C007F307800000000000077
:100443007F0000000E0001983C000000000000FE49
:100453000000000700008C3C000000000001F800D1
:10046300000001C1C0C61E000000000003F0000030
:100473000000F0FFC70E000000000007E0000000CE
:10048300003C1FE3CF80000000000F80000000004D
:100493000F8061FFC0000000000F0000000000019A
:1004A300F0403FF0000000001E0000000000003C90
:1004B3000001FC000000003C000000000000078079
:1004C300007F000000007800000000000001F80039
:1004D3001F8000000070000000000000003C0007C7
:1004E300E0000000F000000000000000000001F048
:1004F300000001E0000000000000000000007800A0
:100503000003C0000000000000000000003C0000E9
:100513000380000000000000000000401E000007F0
:1005230080000000000000000002F00E0000070041
:10053300000000000000000002F80F00000E0000A1
:100543000000000000000000F80700000E0000009B
:1005530000000000000000000780001E00000000F3
:10056300000000000000000780001C000000C00025
:100573000000000000000380001C000000C0000019
:1005830000000000000380001C0000006000000069
:100593000000000003800038000000300000000469
:1005A30040000003800038000000300000000E40CF
:1005B3000000038000380000001000000007600006
:1005C30000038000700000001800000003200000FA
:1005D300138000700000000800000001B000001F3D
:1005E3000000700000000800000001980000078070
:1005F30000F00000000C000000008C00008F800061
:10060300E00000000C00000000860000FF0001E194
:100613008000000C00000000C380007E0001C18048
:1006230000000C00000000C1F0FCFC0003C100004E
:10063300000800000000C07FFFF0000383000000FB
:1006430018000000004007FFE000078300000018C7
:10065300000000004407E000000F0300000030002A
:1006630000000043FFC000000F03800000300000C3
:100673000000C0FF0000001F8F9800006000000012
:1006830000C01E0000003FFF980000600000000053
:10069300803E0000003FFFD80000C0000000008043
:1006A3007C0000000FFFF00001800003000180F8D0
:1006B3000000000001E00003000003000107F00058
:1006C30000000003C000070000030003FFF0000068
:1006D300000003C0001F0000030007FFF00000003C
:1006E300000780003F800007800F83F800000000B0
:1006F300078001FFF0000F800FE07C000000000383
:10070300800FFFFF00FF8000FC1C0000000003C0FF
:1007130003FFFFFFFFC0000F0E0000000003E00017
:100723001FFFFFFFF800038F0000000001FC000122
:10073300FFFFF0FFC000C70000000000FFC0003F44
:1007430000003FF8027300000000003FFC000F00B0
:100753000007FE0033000000000007FF8027800031
:1007630000FF805F000000000000FFF00B8000002E
:100773001FE01F0000000000001FFE0180000003B7
:10078300F80F00000000000003FFC380000000FE1C
:100793001E000000000000003FF3800000003FBE89
:1007A3000000000000000007FF800000000FFE00B3
:1007B30000000000000001FF8000000003FE0000B5
:1007C3000000000000003F0000000001FC000000EA
:1007D30000000000001E0000000000F80000000000
:1007E30000000000000000000000200000000000E6
:1007F30000000000000000000000000000000000F6
:1008030000000000000000000000000000000000E5
:1008130000000000000000000000000000000000D5
:1008230000000000000000000000000000000000C5
:1008330000000000000000000000000000000000B5
:1008430000000000000000000000000000000000A5
:100853000000000000000002550255023402340279
:100863001401F401F409D401B309B209D109CF0188
:100873002B00E801C92AED4B2F4B0F42CE2A0B095F
:1008830027006400420042004200420064096A1AE1
:100893001009F201B30A1609D409F40A1302530228
:1008A300520272027302530214021501F501F60299
:1008B300150214023402330A3302330A7402321269
:1008C300D501F101F112530A330A330A1302130259
:1008D3001402340234023302530A32023202120285
:1008E3001202130213021401F401F401D401D4011E
:1008F300D401D409D40A13021002500231021001A8
:10090300CF1A2F7476D73FE77FDF3F8C9B11502A96
:100913007501721295021301B309D40A140213016B
:10092300F301F401F50A1511D422336417C6FFDF6E
:100933007F8D18196C29AD02550255023502340218
:10094300140214021401F401930A131A5311CF0071
:10095300C9006609893AED4B0F4B0F42AE2A0B09CA
:100963000700630001000100410021004309081949
:10097300EF121209D409F509D409F40A1302330258
:10098300520272025302530234021501F50A150A88
:100993001502140234023301F20A32129412D40AF9
:1009A300730231023112530A330A330A130A34022F
:1009B300340234023402340253023202320233026A
:1009C300130213021302140214021401F401F401BA
:1009D300F401D401F401F3021202310232023201B2
:1009E300F01A2F6C75D73FE77FD6FFADBE08ED3207
:1009F3009501B20A54021301D309F40A1302130234
:100A030013021402150A1509F31A126417C6FFD745
:100A13005FA59A4AD053120A360A550235023502A7
:100A23003402340234023401F209F209D1012C00F8
:100A330088004610E62988320A2A0A29EA19680832
:100A4300C50063004208420021002100020066192C
:100A53008D221211F409D409F40A130A130A33027A
:100A630053025302530253023402340A140A140A7F
:100A7300140A340A340A3301F1129233764C5A1AA7
:100A8300D312920A520A320A330A330A130A140A95
:100A93001402340234023402540254025402330264
:100AA3003302330234023402340214021401F40117
:100AB300F401D401D401D30233021302130A540AFA
:100AC30011122F6455D75FE79FDF1FD6BF29AF2AC7
:100AD30032121301F2023401D301F402330233025E
:100AE30033023402350A35121422326C57CF1FDF1A
:100AF3007FC69D94F89D1912360A360A550255028F
:100B03005402540254025402530A12016E00AA0002
:100B13004708461844104308A400A4008400230097
:100B23000200010001082108000821000200250934
:100B33002B1A11121409F40A140A330A330A340261
:100B430054025402540254025302330A340A130A5D
:100B5300140A330A340A3312312B13755C967F441B
:100B6300381AD3127202110A320A130A140A140A27
:100B7300140A340A3402340275027502550254020F
:100B83005402540A540A54021302130213021301A7
:100B9300F301F301F301F30A3501F401F50A550AF0
:100BA3003312306454CF5EEFBFE73EDEFF73D521CF
:100BB300AF1A3301D20A5401F4021402530253024E
:100BC300540254025612551A5422526C57D75FDFFF
:100BD3007FDF3ECE9DCE9E12560A56025502550227
:100BE300740274027402730A73125209AF00A900EB
:100BF30005000310020802084308630843000300CA
:100C0300020001080008000800104200220024012D
:100C13000B12110A3402340A540A540A540A540AAD
:100C2300550A550A550A540A540A530A530A320AF2
:100C3300330A330A5412531A704394A6BFBF9F75E5
:100C43007C22F212920A310A330A340A140A150A70
:100C5300150A140A140A3502550275025502540284
:100C6300530A530A3312320A120A120A120A120AD6
:100C7300120212021202130A1501D501F60A5602D4
:100C83003412716495CF7EF7FEE73CE71EBDDB3A75
:100C93007111B00A530254023402340274029302F3
:100CA30094029502760A761A7422516415CF1FDFD7
:100CB3003EDF3DDF1EDEDE0A960A950295029402B0
:100CC300940294029302730A730A11016D00C9001E
:100CD300670885086400220002002200230023081D
:100CE30023102210011000080010420023004501C8
:100CF3002B12110A7402750A940A940A750A550A8A
:100D0300550A560A550A750A740A730A720A520A70
:100D1300730A7312751A73226F6455BF3FBF7F96B0
:100D23001D33531AB20A720A530A540A350A360A91
:100D3300350A350A340A3402350255025402530A7D
:100D430032123212311A301A301A301A301210128B
:100D5300300A310A510A32121411F50A160A560AD8
:100D63005512B36CF7D79FFFFEE6FAF73DDE9D847D
:100D730057116E22F402530A540274029402B4020D
:100D8300B402B50AB612961AB4227163F4CF1EE701
:100D93007EE73DE71DDEBD02F502F502D402D40273
:100DA300B402B30A930A930A5212311230226F32F9
:100DB300EF3AEE2A6B1A08010400C40083004200D4
:100DC3000100010000080008000821002300450974
:100DD3004C1A5212950A960AB50AB50A950A760A6A
:100DE300760A760A760A950AB50AB30AB30AB30AEB
:100DF300930A9412951A942A6F9579CF5FBF1FA611
:100E03007E649722F212720A740A750A7602560AEF
:100E1300560A550A540A540A540A540A5312521AC7
:100E23005122502A4F2A4F2A4E2A2D220D1A0D1ACB
:100E33000D1A0E122E1A301A321A3412560A560A84
:100E43007523147D59DFDFEF9DEF1BEEDCE69DBEBE
:100E53001E325022D312930A740A75029402B4020A
:100E6300D502D602B70A9622D62AB25BD3D71EEF93
:100E7300BFEF5DE6FDE6BC03140314031402F302A3
:100E8300D30AD30AB312B3023023134C576D5A75E6
:100E93007965355CF35CD24C503B8D1A6901450092
:100EA30083004100210800080008010002004511E9
:100EB3008D22731A9612960AD50AD50A960A960AAD
:100EC300770A770A760A9612D50AF40AD30AD30A5E
:100ED300B40AB512B622B4328FBE7DDF9FCF1FB6E0
:100EE300BE8DDC331312720A950A9602970297029B
:100EF300760A750A740A7312731A731A7222712AA4
:100F03006F326F3A6D426D3A2B3A0B31EA29CA219F
:100F1300CA21CA19EB220C2A2F2A722274125412E4
:100F2300742B55859BE7FFE73DFF7DE67BE69DDE62
:100F3300DF63B51A2F1AD312940A9502B402B402CE
:100F4300D502D602B70A9622D62AB35372CEFDF73C
:100F5300DFEF5DE6DCE69C0313031303120B330B95
:100F630033135313531B5423B53C77553955384D1D
:100F7300364D344D7455734D524D113C4F2B4C1A15
:100F830048096500810000106108210002088621DC
:100F9300AE32942AB712760AD60B160A961B18128B
:100FA300B70A561AF80A960AB50B1502F402B30AE1
:100FB300D40AD512D622D54AF1D6DEDF3FDF5FC68B
:100FC300DEAE5E6CD91AB212D50AD602B702960209
:100FD300960AB50AB412721A502A70329042AF526E
:100FE300EF5B0F630D5AAB5A8A52494A0839E7310E
:100FF300C729A72187196729EB2A2D2A911A521A83
:10100300732B149E1DDF9FF79FFF3EF6FEEEDFD688
:101013009FADFD3B311A703356023312D52398022C
:10102300D502750AF812D81AD622935BD4B63BF7C9
:10103300DFEF3DFFBFFF5F1B730B1102F11BB33CDF
:101043009744F83496241434B73CD63CD645154D12
:101053007555944D72451144CF4CF04CD04C4F43D1
:101063008C2A681943086008200000086231EA42AC
:10107300F132D3227412950AF50B1612F61B171AC6
:10108300B612961AF712D60AF60B150315031513A3
:10109300360AF60AD62AF56394EF5FEF9FD6DEBED3
:1010A3005CADFC8DBC439512B412F613170B170AF3
:1010B300D50AB412F32B13328F4ACF5B306B707B9C
:1010C300B083AF7B6D7B0B6A8962675A2651E64911
:1010D300E641C539A5298511031967222C226F2AF8
:1010E300B14333AE5EF7FFE6FEEEDEFF1FEEBFE772
:1010F3001FD6FF7CD62AF022B32B161AF40AB41398
:10110300571B7812F812D72B58229353B4B63BE7E8
:101113003ED69BFF9FFFBF2B522B9333F434553C9A
:10112300B534D52C941C732CB42C932CB334B23C0F
:1011330090342D340B3BEB3369438A4BAB538B53C6
:101143004A52E84A6639E3292110C019233A6A3B17
:101153000F22D01AD32356133613152356231622E0
:10116300F533572B1612B51B37133603160B3613ED
:1011730057131612F62B156394E73FF7BFE71ECEFE
:101183009DB63BAE1D4B9422D312D412F613161206
:10119300D40A9212B12AD0530F73908C119C72A46B
:1011A300719C2F938D832A72877266620559E4516D
:1011B300C449C44984398431A3216421A821CA2A9A
:1011C3004E42F1A5DBE75FEF3FD65DF6FFE69FE713
:1011D3001FDF1FBE9C74D6225033152B1412D3135A
:1011E300151B3712F81B181A9522B353B4A5DAF757
:1011F300FFEF7EEF3EEEFE339344354C963C531B9C
:10120300B00B6E0B8E13EF140F13CD1BAC2BAB3344
:101213008933684BA85BE9848C8C6C8C8D948D9C92
:10122300CEAD0FB52FB52EAD0D9CAD846D6C0D43BA
:101233006E2B0F233123751B5512F42B762B144B76
:10124300F77D5D545922F423361B570B370B1713C5
:101253005713371B3533357477EF9FF79FEF3FCE27
:101263005AC63ACEDE959A3B3322D31AD423142B93
:101273001422F22AF0430F7BD09C51ACF3B513B484
:10128300B1A40E936B82E872466A2561E459C3598F
:10129300A3518349624162318219221924192629F3
:1012A300A9428DADB9EF7FD67CA4D7C5DCEF1FEF84
:1012B3005FDF1FE79FCF3E641632D22AF2339512C7
:1012C300F412F523791B382B383B563B127CB5EFD0
:1012D300DFCE7B9CD5B5574414441433D21B4F0B3C
:1012E3000C0B2C0B4B134B1B6B12C81AA643476CEE
:1012F300098CAAA52BBD6CD5AFE5D0EE11EE32F665
:1013030072F692F691EE50EE90E6B2D692B5F27C7A
:10131300D04BCE336F2B7223341AF3335443948D53
:101323007BCFBF9E1E43B61AD423781B580B1713CB
:10133300372377235533337CD8E77FEF7FEF7FC69F
:1013430018BDF8BE19BE3B4B1132D12AB132D2328D
:10135300D13ACF533073D09CB2B512C553BD32AC22
:101363006F93AC82E972876A2561E459C35983514B
:101373006351624921392129012122294429242940
:101383002531878C71BDF852AC31895AD0CE5EE7D6
:101393003FE77FE79EE79ECEFF641532F03352238B
:1013A3003323552B991B1723162AF44BB48D57C699
:1013B3009C6B8F18C529273C132BB2130E028B028B
:1013C3006912EA1B0A22E8122532A66388948BBDB0
:1013D3006CD5CDE60CF62DEDACF5CDF5EEF5EEF6D0
:1013E3000EF60EF5EDEDCBEDECE5ECE62FDE51ADB3
:1013F300716BCD4B0D43503B542B1343736C55BE54
:10140300BDEFFFBEFF5C371AB32B5823991B58233C
:10141300782B762B743B73A63DDF7FDF3EDF1CDE2C
:10142300BAD6589CB294B463715B724B324AF142A0
:101433008F4A8D6B6F9451B4F2BD12BD12AC909B69
:10144300ED832A7287622659E559A4518351634972
:10145300424922410138E131422922310328E33153
:101463002330E24A0641E60020000208A78456CE54
:101473009EF7DFEF9EDF3CF7FFBE9E6C753B302B84
:10148300732B7523362B9833983B7553F43ACD2A37
:1014930009110510A410841370134F0ACD022901FA
:1014A300E70A27226732463A247368B4ECDDAEEDCF
:1014B300ACED8AF5A8F5C8FE2BF64CF62BEDEBF553
:1014C300EBF60BFE0AFDEAFE0BFDCAFDCCF5CEDD05
:1014D3002FAC0D8B0C62CE4B733B534B929578D74D
:1014E3005EEFFFC6FE7CF9333533782B7923992BD6
:1014F300982B553BB45C76CF9FCF5FC6BC9D14DE63
:10150300B9DE789C70945183F273D263725AEF52AE
:101513008E6AED8BAFA450A44FA46E9C2E8BAC7B34
:10152300096A885A2651E551A44984494341234114
:1015330022410138C130A128C218812061286141AC
:1015430023412141621040088010E400854ACFBE48
:101553001CEF9FFFDEF7BEE75EE7BFB69C6CB53BB3
:10156300B32333233533B8231543D64372012619E6
:10157300A7322921460884030E02ED026A01E7011E
:10158300C61A262A0531A293EAB48BDD2CE54AF567
:1015930049FD68FD87F587FE0AF62BFE2BF60AF553
:1015A300EAF5C9F588ED47E4E6F528F52AED0BEDF4
:1015B3002EED30CC2E8B0C63304B1063B1BE7AEF23
:1015C300FFE79FD73FAE3D5BF73B772B372B782B5E
:1015D30076233343F57D9A7D178D57B6396B8DCEC0
:1015E30037C5738B8C93EE732C5AAB41E939884919
:1015F300E96ACB834C8B6C8B8C8B8B834A72A86A86
:1016030046620551C4518449634143412241013932
:101613000138C130802880206030E2410330A13896
:10162300C138C041A2210000401124008421A99D9A
:1016330078BE1ADEDBFF9EE71DE71EE7BFB6BC5C84
:10164300543BB43BF72B553BD75437120C00846CF7
:1016530031638E006210E40A8A024901A702070976
:10166300C501213A237366C52CE56BF5AAFD89ED07
:1016730006ECE5F567FE0AF589FDCAF589FDA9F5CE
:1016830068DCA5D484CC85CC65D4A7C447BC06C488
:1016930028D48AE4CCE530AC706B0C6BAECEDBD7D0
:1016A3003DF7FFBE7CC6BF74364B742AD243D63394
:1016B300953BB56CF94BD321EAADF98C726B6D9CFC
:1016C30071D5F662277B0A93CD730A5A4851E651C6
:1016D300E66A8872CA728972886A47620659A4598F
:1016E3006359435122512140C040E038C03080301B
:1016F3008038A038A030A038E1286030A138A1306C
:101703008051C5524710C10060118500A300834278
:10171300CD9D36D6BBEF1DF71DE6BCD6DDEFFFCF63
:101723007F4BD443D443F543B43B723AEF3A8D63D2
:10173300B04AAA73EF73CE01E802080A28124701E0
:101743000109006B67ACCADD8BE548ED06F506FDC4
:1017530047FD68ED47E507FDABE509ED08DC86D4F9
:1017630045CC04D4A6E508DD29DD0AD50ADD2BDD49
:101773000BC407B385BBE8BC8EC553734BA574B6C6
:1017830038E7DFDEFFDEDF8C77639353934B934BB6
:10179300B35C554B5219AA95369D354A4918824177
:1017A30065A4707AEA62267AE98B6B93EC8BCC831F
:1017B3006B836B7B2B6A686A886A686A2769E66948
:1017C300C569A561A461C459A361C359A3518249E1
:1017D30041492140E03880308028603080412259DF
:1017E300E65A273965086100A2010300A200A3118C
:1017F3002552EDB598E6DDFF3EFFDFF77FCEDECF66
:101803005FBF3F54154BD4331064553ACF21A932EF
:101813000973CFD6DADEFA020801C7122822470974
:10182300413A23A4ABCD4BDD49ED47F506F4E5F48E
:10183300E6F527ED28E4E8FDADBBE6DCA8D488EDAA
:1018430009F56AFDECFDEDFE2FFE50FE51FE92FE02
:1018530051DD2DCC6ACCACAC0BCD726B2973CD6B47
:101863008DD6BBEF1FE6DF9C565AAF633152EF6351
:10187300918CB67BD29CB5C5F941E820C349C720FA
:101883004030C259C66A68496351A4626772E973FA
:101893000A7B2B834B730A6ACA6AAA72AA72AA7A50
:1018A300A982CA82EA8B2A8309830983087AC77AC1
:1018B300A67A667A256A04516249A238E049226A07
:1018C3004749851040106110E308E3006200A3005C
:1018D3006310A46B2EC5B8D63ADE7ACE5ADF5FCF3B
:1018E3001FDFFFBF3F5C555BF45391008508A519CB
:1018F300058C72F77DEF3B0A0912081A072A464244
:10190300647B86C52BD529DCE6F526FD26F4E5ECBC
:10191300A6E4C7E4C8D4A9A34571C0C449ED4CFDEE
:10192300EEFE4FFE4FFE0EFE50FE92FE72F631F6B5
:1019330032FE32F612F612C4CEAC8E8BEC7BCC3177
:1019430084C5F8EE9CF6BEC51883108BB283B183B1
:10195300B072ED51679BB0C555CDD7D5F7DE18D51D
:10196300D79C0F6A697B0B6A8949A5394341A54115
:10197300A5418441A549C55248524952285A285A7B
:101983000759E7620762476A8872A87AC882E88BB8
:1019930008930892E88AE77AC67B07622559C459F7
:1019A300E530C1080018610841320742694ACB5A41
:1019B300EC39C839A862ACC5D8D659A5159D56BE11
:1019C300BCAE7BD7BFB6BD6C5421A9000208A408E6
:1019D300628C51FFBEFFBE09C8226921E53A457BEF
:1019E30087AC68D4E8E527ECE5F4E4F4C4F4E6F561
:1019F30029E4C9B385824238603020BC4CFE32FDF5
:101A0300F0FDCFFDEFFE31FE51FE73F632E5D1EE70
:101A130013F654F654F655EE33B4AD7B696B2820B8
:101A2300E1A492D577EDFAEDBAC475A3B19B6FAB80
:101A3300D0ABAEB36EF575FE59FEFBFF5DFF1CFF29
:101A43003DFF5DE6389BEF834D7B0B7B4C8BEE9428
:101A5300509C91A4B19C91840F7BEF738E6B0C5AB5
:101A63008A520849A7418649A649C559E56A467A73
:101A73008782A78AA78AA67B077B2883287AE86AB6
:101A830046496328811840000039A6634D94B3ADDD
:101A930056A536A4F58C123987318642293A4984F2
:101AA300D3A619B67BC6FD95571106006310A4088B
:101AB300219452FFFFFFDF09A721E711014203AC85
:101AC30089D529DCC5ECC4F4C3F4A3F4E6F508DC3A
:101AD300C9AB866180280020002000A3ABFE75FD02
:101AE300F2FDD0FDF0FE72FE93FE53F633FEB6FE1A
:101AF300F8F696E615EE76E613C54F398028E0280A
:101B0300C18B8ECD15EDB9ED79FE3BED77C452BB9C
:101B1300EFCBEEE40EEC70FDB6F5D7DD34EDD7FE7A
:101B2300FCFEDBFEFCFF5EC556DE59F73CF73CEFDF
:101B33003BF79CF77CDEDADEFBD6BBC639B5B7A430
:101B4300F5945283AF734E62CB526949C6498451AF
:101B53008361A371E57A6572A66A8472E68308726B
:101B6300A77267620639032081000039E8BDB7D642
:101B73009BD69BF7BFF77FB5975AEC0882110411E8
:101B83006542EC6C318CF49D7608A4002210830826
:101B9300625ACCCE39CE38092508C208606243CCDC
:101BA300E9ED48ECA4E441F482F4E5F528DCA89BD4
:101BB30005512028001800202018006A06E5B3ED1F
:101BC300D2FE12F5D0FDF0FE32F5F2EE13FED7FF92
:101BD3005AFEF8E636E635DDF2DE335A6410402865
:101BE300E19C10E5B8ED99FE3CFE7CFE19E534CC92
:101BF3000FBB4AE38BFCB0CB8DE4B2FD96FE59EDEF
:101C0300B7EDD8FEBBEE5ADE19EE9BFF7EFFBEFF9B
:101C13009DFFDEFFFEEF9DEFBEE77EE73DDEFCD6D8
:101C23009CC63AB597A53594927BEF6B0B5A4851F6
:101C3300C5516459435983622451E25A03622462B1
:101C4300256A46624751A53964080018A29CF4E747
:101C53003DD6DCD6FDE75EEF7EDEFC218600A211D9
:101C630065006100C33A8A6BCF29C7088218C4088C
:101C73006208826BAF8CB30020000028C08B25D490
:101C830087DC64EC62EC40FD04F507DCC9ABA759C3
:101C9300811000100028C3080010005185DDB4ED49
:101CA30092FDF2F5B0FE11FE11FE53F634F675FF08
:101CB30059FF7BEED9DE35E655EE95AD0F20C0100A
:101CC30000A451DD98BC54B3D28A8CB3F0F617FD4F
:101CD300B4BB09AA05EBCCCB0BFD34EC92ECF4FDC1
:101CE300D8FE3AF619F65BF67BDDD9E65AFF9FFF7D
:101CF300FFF7BEF7DEFFFFFFFFF7DFF7BFF7DFFFFB
:101D0300BFEF7FDEFDCE7BADB8AD77AD55A4F393CA
:101D1300EF72AA516540E1496251A151A251A35109
:101D2300C3494241224984416441C600002124BE83
:101D330018F7FFE77EEFDFEF9FEF9F9D3509040064
:101D4300C3092421E742CA95349D55214500620801
:101D5300C308A34AAB3209086108004100C489E4FF
:101D6300C7E422E420FCE4EC84E4E8BC2849401006
:101D730000104100011043000028C31800AC0DFE01
:101D830034ED90FDF1FDF0FE11F632FE74D5B1FF96
:101D9300DBFF9BDE36DE35FF59E675D6553143183A
:101DA30060626ABCD57A6D61A96A0A18006A27ED78
:101DB300D5CC0EAA26BA68CAEBE3F0F4B3FD35ED31
:101DC30035ED57FE1AEDF9F65BEE3ADDD8F71DFF58
:101DD300DFF79DFFFEF7DDF7DDF79DFFFFF79EFFC2
:101DE300FFEF7EF7DFF7DFDF3ECEBBB5F8AD76A4BE
:101DF300F4B515ACB36A6938E040E0494149414163
:101E03000151A35A0541646AC9732B20C2210329D6
:101E130086A575C6DBD73DEFBFDF1DDF5E7C5200B5
:101E2300C3116519C663EF7C9174306BCF216600D3
:101E33004100A36C315BAF18A020806A02D4A9E4EF
:101E430065E401EC21FCE5F548D4C96A22100010D1
:101E53004118C4084400021022182028607267DD6C
:101E630050DD0EED8FFDF0F5D0F632F673E633D587
:101E7300D3E635FF7AD5D4EED7EEB6E6D75AC829DE
:101E830003310551A959C99C13832E184218009395
:101E93006CDCF2CB8CBA69C26AEBD0FC73FCF5F54F
:101EA30015ED36FDD9F5D9F5FAEDD9E5B8F6BBFF51
:101EB3009EFFDEFFFEF7FEF79CFFBDFFFEFF9DFFCB
:101EC300DFF79FFFBFE73EE79FDF5ECEDCC67BB554
:101ED300D8B597C5D8B4F47AE959A338E0390139AC
:101EE30001412251C56288BD33DE58CDD620C339A6
:101EF300A652CA5B2C7C51D6DDEF7FF7FFD71D5B63
:101F03008E00E400205B8D534D3A6952CB4AAB4AB5
:101F1300AB11253A8A532D28E139208AA4D488DCD1
:101F230003EC02F463F4C6CC67A3C730E0102018B7
:101F3300C400230823104318411000202040E0BCB4
:101F43004CFE11F5AFED8EF5F0F611EE11EE537A6E
:101F5300C68349FF9ADE14CD92CDD3E6B7734B10F7
:101F6300401000100130C56ACD3967108208008324
:101F73002CEDB6CBEFBA8AC24AF3D1FC53F493F4F7
:101F8300F5ED15F557F598F5B8ED57E598EE19F712
:101F93001CFFFEF7FEF7FDFFFEFFBDFFFEFF9DFFEB
:101FA300DEFFDFFFFFF7BFF7DFF7FFE79FDF5FCE60
:101FB300BCBDF9C63BDE7BCD959BCD622759E6625E
:101FC300676AA8836BAC90F6FAFFBEF6FBBD544973
:101FD300E7ACF35AAB210462EDB5B99D36B5F9848C
:101FE300B3196600C31124638E5B2D52CB212529BF
:101FF30066086200220862418349619B25D468DB3D
:10200300E3EC43F4A5ECA7BC0759C1080018C229A7
:102013002500210000080020402840284030207A75
:1020230043FDF0ED6EED6DFE10EDCFEDF1F6736A4D
:10203300444100DDD2EE75CD718348BD518C0D4115
:10204300A439452022180120A4000008211061832F
:102053006EE576D432DB90CA6CFBF2F412EC32F408
:10206300D5ECF5ED15F536FD77ED15ED76E576F660
:102073009AFFFEF7DDEFDDFFFEF79CFFBDFFDEFFFE
:102083007DF71CEF1CE6FBEF3DFFFFEFBFEF9FEF7C
:102093009FCE9CC63BD65BFF3DE5F793AE6248738C
:1020A3002BA491D5F6F6FAFF7DFEBAFE9AFE9A624C
:1020B30008AC72D5B7836E186331683A0931C853D7
:1020C3000D9514636E088218E483D0CDF86AAB28AB
:1020D30083182230E451C849A34961A387DC88D31C
:1020E300E3E404F4A7E4C993052880186018C20840
:1020F300201000204038A12820490248E0408058A1
:10210300E0B3C7E50CFE10ED8EED8FFE52FE53BC1F
:102113008C61C2B44CEE13EE336203A46CCDD3CD09
:10212300D48B6C2861100010001041106228E4ACBD
:1021330073ED78EC54DB51D2CEFC13EBD2E3D1F444
:10214300B4F4F5F4F5F4F5FD36ECB4ED15E515F658
:1021530059FFDEF7DDEFDDF7FEF7BDFFDEFF7CCDD8
:10216300D6B513A49183AECE17FFBEF7BFEFBFFF63
:10217300FFE75FD6DDDEBCEE9CFF1DE69ACDF7E6FA
:10218300BAFF9DFF9DFF5CFF5DF618DD15BBF09266
:10219300AB926BDCD5F5F9622A62ED83F16B8F317B
:1021A300A75B2DA53542091001308382AC930EA3A2
:1021B3004E9B0D8209612628C030A0A387D447CB4C
:1021C30083DBE4ECA8DCAA4900100028E218A1088C
:1021D3000051849329B40CD532D531DD30C46CC49D
:1021E3002AB3A7E4ECF5AEED6EF5CFF611E56FFE7D
:1021F30033B40AC48DEDD2E5D1AC2AD5D1EE74FF48
:10220300599BED20002000180010001061628BF62E
:102213005BF599EC35D2D0DAF0FBF4EBB2DBB1EC41
:1022230053F4B4FCF5F4B3F493EC73ECB4E514EEAB
:1022330018FF7CFFFDF7FEEFDEFFFFFFDED65883BE
:102243008D730B72CA49C6BD74FFBDFFFFF7BFF79D
:10225300DFEF9FEF5FEF5FF6FDFF1DEEBCDE5AE69B
:10226300DBFF7DFFBEFF9EFEBBE515B32EB2EDB2D5
:102273008CCB4F99EAECF6B494394694527BD00058
:102283002100002105416649462800402271068944
:10229300889188A1E9B24A18402040A367C3E6C3E6
:1022A30063E426E468B36630401000080028E27255
:1022B300A8CCEFFDD1F590F5F3DD72F5F3FDF2FE59
:1022C30052FDAFFDF0FE10FDD0FDF1EDB0DD4FFE90
:1022D30033E54FED91FDF2E56FFE73FF15EE53EE1F
:1022E30054AC0C3040306030A1204049C7A431FECB
:1022F3005BECD7FC77FBD5E2F1FBF4EBF3E3B2DB6A
:10230300D1EC52FCB3EC31EBF0F472EC93ED14E549
:1023130096E678F79CF7FEF7FFF7FFF7DFDE997392
:102323000B5A2862686247BD53FF7BFFFEFFDEF74F
:10233300BFF79FF79FF77FFF3FF71EF73EEF3EEF95
:102343005DF77EFF5DFEDBED96C3D0CB90AA0AB2AC
:102353000BCA6DCA6DE3F2B4321001102141C839C2
:1023630087106228A3284230227167A24BCAEDD29C
:10237300EECA2AC1C9B988312030E0A3C8BBC6C39D
:10238300C5ECC9CC2871C12000286018406A87CDEC
:1023930030EDD1FDF0FDAFFE33FDF3FE13FE12F57C
:1023A3006FFE73FDF0FE11FE11FE12F5B1FE73FD1B
:1023B300F2ED70FE33FE12FE92FED3FE93FED4F6D0
:1023C30013CCCE6141404038606185CD14EDD8FD1A
:1023D300D9F4B7FD39FBF5DB31F414F434E3F2D36C
:1023E30090DBD0F452DBAFDB8FF472EC92ED14DDB3
:1023F30034CD74EF1AF7BDF7FFE77EFFFFFFFF94BD
:102403005052285A27730ABD73EF1AFFBDFFDEFF30
:10241300FFFFDFFFFFFF9FFF3FF71FEF1EE6DDDE3E
:102423009BF71DFEFCEDD8BBD0CBB0CB0EB1AACA37
:102433002CDA4DFB50C28D696720212062102120C8
:10244300A31800200040637947CB70C28DC20BDA1A
:10245300ADE26CDA0AD9A9312030E082A4C429ABF9
:1024630045CC4ACCAD3040284010005183D551E5CE
:1024730090ED8EFDEEFE0FFDB0FDF2FE32E4EDFDBC
:10248300B1E4EEFD90FDB1FE33FE12FDD1FDD1FDB1
:10249300D1FE11FE52FE92FEB2FEB1FED4FE94EDC9
:1024A30070DCAECC0BB307B329CBCEFDF8FDDAF568
:1024B30017FD79FCF7DC13E433D390EC53FCF6EC13
:1024C30053E3F1EC52E411F493E472E4B2C430B494
:1024D3004FBD11CDD4FFBCEF5DFFFFFFDFF79ECEF5
:1024E3005894B1AD74CE57EF7BF79CFFFEFFFEFF10
:1024F300DEFF7DFF7DFFBFFFBFFFBFDEDDEEFDFF24
:102503001EEE1AFE9CDC94BB4FE412DB50C1AAC939
:102513008AE22CEA8DDB0E60A428002000208218BA
:102523000030424001AA2BE371E310E2CFEAEEEA66
:10253300CEEA6DE1CBE18A6B096AA651609B26BCAA
:1025430009B3C9A3CB2840200030818AE9D50FDD28
:102553000DFDEFFE90FE4FFDF0ED4DDCACA305CC81
:102563002ACC4AED4FFE32FDD1FE11FE32FE52FE61
:1025730051FE51FE50FE50FEB1FE70FE31FDD1F50D
:102583002FECCDECACE44CE46ED40FF536FD79FDC5
:1025930059FDDAFD57E493D3D1C36FE412FCD5ECB4
:1025A30053EC52FCD4F4D4E452D430C3EFA34CAB79
:1025B300EEE5F5F6D8FF7CFF7DFFDFFFBFF7BEF743
:1025C3009DF7BDFFFEF7BCF7DDF7BDFFDDFFFEFFA7
:1025D300DEFF7DFF5DFF7EFF7FF75FE71EE6BCF654
:1025E3009CF5DAECD6CBB1CB91EC33E350C1AAC95D
:1025F30049EA0BF28DE30F816730002800180020B1
:10260300006987AA6CE350EB10F2EFF2F0F30FF2DC
:10261300EFEA6DE9EBE9ABAD54B53230A06181C4AB
:102623002AAB888AE7280020003040A38BE530EDF1
:102633004EF5CFFE50FE50EDCED50BBC287220AB2D
:10264300A6D4CBE54DED8EEDAEF5EFF630FE70FE84
:102653006FFE6FFE90FEB0FE2FFE0FFDAFFD6EFD11
:102663002EECCBE48AE4CCDCEFCC70E536ED79EDEF
:1026730018F558FD36FD15EC53CB50D370DBD1D391
:10268300B1DBF1EC93ECB4D431C3F0B3CFA38DC47D
:10269300D1FF1AFFBDFF9CFFDFF75EFF9FFF9EF791
:1026A3007DFFFFFFFEF79DFFFEFFDEFFDDFFDEFF89
:1026B300BEFF9EFF7DF75DFF7FF71EEF3EDE9CFEB4
:1026C300BDFE5CCB71CB30DBD2F433EB50C9CAC94E
:1026D30049E1CBF24DE2EE91E940223842386230D3
:1026E30000924ACB2FE330EB10F330FB71FB71F315
:1026F3000FEA6DE9EBF1ABD6BCEF3C51A43880A3F4
:1027030047B3EA9308280030203040B3ECE52FF5B7
:102713006FF5B0F610FE51DD6DDD6DC48A69A0A3BF
:1027230004ED4DED4DD48AEDADEDCEF60EEE2EF665
:102733000EEE0DEE0DF5EDFDCEFDAEFD4DFD2DFDC9
:102743002DEC8AD428DCCCCCEFC4F2D577DD99DD2F
:1027530018ECF6FD35FD15FCB5DBB2CB50CB91CBB8
:10276300B1D3F2DC73D473FE7AF5D7E596DD95EE3B
:1027730037FF3BFF9DFF3CF71CBDB7E6DBFFDFFFE9
:102783009EFF9DF77DFFFFFFDEFFDEFFBEFFDEFF47
:10279300BEFFBEF79EF75EFF3FEEDDCE5AC5D9EE14
:1027A3005BFE5CCB51E392EBD2F413EB71D20BC91A
:1027B30049D98AEA0BE26D89674022280050C46038
:1027C300E5C34FD330E331F351FB92FBD2FBD2FB92
:1027D30030EA6DE9ABE96ADF5FF7BF836C28606AB3
:1027E30003B42BA3AA4900282048C0CC6DDCEEE536
:1027F3000DFE11FE73FE52EDD0F5B0CC2A690081B7
:1028030080D3A8ECABF4ECE4CBE50BED6CEDADF5CC
:10281300EDFDCDF58CF56CFD6DFD4DF4ACF48BFC4D
:10282300CBE469DCAAE5AFE633DE37D5F9D59ADD2B
:1028330059ED58FD35F492DBD2D371D3B2D413D40E
:1028430053D494DD16DD76FF5EFF3DFF1BFF1CFFB7
:102853005CFF3CEE58BD3483AF5A6A9C92EF1DFF78
:10286300DFFFDFFF9EFFFFFFBEFFDFFFDFFFDFF7BF
:10287300BFF79EF77EF75EEE9CF6DED67BDEBCF6F8
:102883009CFDBADB72EB72FBF3FBF3F391DA6CC9D9
:1028930069D149E9AADA2CAA4A81E850835042A2B5
:1028A3004BE3F2E351EB31FBB2FBB2FBD2FBD2F3CE
:1028B30030EA4DE98AE929D73FD6FE9C7128A03832
:1028C300C0A3EBAC6D832928203840AB89ED4FF5CD
:1028D3004FFD90FE12FE53FDF2FD70C369894088DF
:1028E300C0A160DB27FD0DF4CCECECE4EBE50BEDD4
:1028F3000CED0CF50CFD0DECCCECCDEC8CEC8CEC78
:10290300ACE4ACDD2DE5F1FF38FF9CE6FDD63CD50C
:1029130099DD37ED34E4B2DC53E495E4B6D4D5CC99
:10292300B5CD36EE5AFF9EFF7EFFBED638AD34B529
:1029330034BD34A451730C52695ACBA534EF5DFFF7
:10294300FFFFDFF77EF77EFFDFFFFFFFDFF79FEF7E
:102953007EEF5EE75EEF3EFEDEFEDEC619BDD8AC5F
:1029630094AB50D331F352FC35FBF3F3B1E2CEC950
:1029730089D128E98AE20BC2EDECF5D43278E6D3AB
:1029830070DB10E310E2F0FBD3FBD2F3D2F3B1EA36
:10299300EFE22CE94AE909D71FD6DDA4F428C120C8
:1029A300409C2DCDF4BD727B4A49418244ED2FFDFD
:1029B3006FECEDF52EFDF2FD92FCF0C2A7C246C10D
:1029C300A49860B962DAC7FC8DFCCDF4EDECCDE4DC
:1029D3006CE42BEC2CEC4CECADE4AEECCFECF0E483
:1029E300D0E551EE13EE75FF7BFFFFF77FEF1FE698
:1029F3005CD577DD75DD54EDB8E5B9D557B4D5A40D
:102A0300B4A535C659DF7DEFFFE7DE9513530B5BA6
:102A13000C6B2C7B8E83CF9D34BE38D71CEFBEEF5F
:102A23009EEF9EFFFFFFDFFFFFFFDFF77FE73EE73E
:102A33001EE73EE73FE71EEE7CAC745B0D31E828F2
:102A43008350A5CAF0FBB3FBF4FBB3FBF2EB50D10D
:102A5300EAC948E169D1A9AA0AFDD8FDB9B24CEB8C
:102A630071E2CFEAF0FB92FBD3FBF3F3F2EB70E2FC
:102A73008DD9AAE109E909E73FF77FBD7528E11878
:102A830060A4F1F79CE73AFFDDA44E7A44CC2BDC3B
:102A93006BF4ECFD4EFD2FFD51FC8EBA25E2A8EA46
:102AA300A8B0C1A0808840A9C3C2E7E46CF52FFD9C
:102AB30030FCF0FCD0FCF0F531E4F0E4F2D4D3CCFC
:102AC300D3E5F7FF7CFFDDFFDEFFDFEF1DFF9FFF99
:102AD3009FE69BDE17C595B515A4D4843173AF6B00
:102AE300F0640F5C2F5C906D1296377D3384F39DF9
:102AF300758CB29CF3BE58B658B69995759575AE5C
:102B030038C6BAEFDFF7FFF7FFF7BFE73ED6DDDEE4
:102B1300FDE73FE75FEF1E93B2390610E408A31801
:102B2300425907D331F331FB72FB72FC13FBD2DA48
:102B33004CC968D128C107BA4AFDB8FC74D2AEE2C9
:102B4300AEF310E26EFB72FBF3FC13F413EB70DADB
:102B53002CC948D8C7E0E8EEFDE67BC595392220AD
:102B6300C07BEDCED9F7FFE75CF73AD530C3C9ECAC
:102B73008BFCCBF449FC8BFC8CFC6CCAA6C204EB2B
:102B830008DA86A0E090E08900790081818A039ABF
:102B930065C369DC0DD3CCBBACCCB1AC119BD29378
:102BA300F4DE5DFFDFFF7FFFBFFF5EFF7EFF3EEED4
:102BB300FDE6FCC658A59595347CD36C7164715CB5
:102BC300914C90446F3C4F3C2E3C2E547064B18525
:102BD30075CF5CD73C8D144BAD43CD540E64916CD3
:102BE30091643084F4BEBBD73DEFBFCEDDC63BD688
:102BF300DDE71FEF7F7B9149895A2B29C700A20884
:102C03000050E6C2AEEAD0FB72FC13F3F2E36FE2CC
:102C1300EED1EAC907C948BA4AD34EE34FEB0FDAFC
:102C23000CD1CCFB31FB92FC75F413EBB2E2EFD188
:102C3300CAC928D908E908FF1CFF9DB49020603158
:102C430022840ED73BEFFFE77CFFFDFEF7ECEDD3CD
:102C530087C2A2C2A2E386DB46FC4AE347B9C2CAE3
:102C630023D285C224B20399A1812071008181A25C
:102C730065C369DBECD3EC9AE9B430A41373126235
:102C8300F38C79DEDFF79FFF7FFF5DFF3DF6DCD638
:102C93005ABE3995B67D3375546D3365135D33551F
:102CA300123CB02C4E240E2C2E1BAC236C336C3BED
:102CB3006D4BCE4B4D1A280A270226230A54705C0B
:102CC300913B6C2AEB4B8E95B7BEDCCEFDBE7BDF12
:102CD3003FE73F9CF639A9498941A81104004108FF
:102CE3000050C5C28EEB11EB10FBB2F3F2F3B1EB64
:102CF3000EC9A9C0E6C988C24AC26BCA0BDA2CE264
:102D03000CEA4EFBB3FBF4FC75F413F3B2E2EFD120
:102D1300CBD128D908E108DD12E57361A44942BD8E
:102D230032DEF9F7FFDF7DFFDEEEB9DD30CBC9CB55
:102D330025CAA2C240BA00C241FC49FCABDB05B9BB
:102D4300E1B1C1B1E2A9E2A1A1BAC5E3EAFCEEFC9B
:102D5300EEDBA9B22391819267936D83724A30327D
:102D6300123A539D3CDEFFEEDDF6DCF6BBE679CE90
:102D730039AE388DF76D7444504470449044B03C80
:102D83008F2C4E240D240D136B0B0A0AC90A8812CB
:102D93006812481A2812070A6702470A88232B3346
:102DA300CD33AD22EB12695C517D159DD89D98CE34
:102DB3009CCE9C5ACE3989394720C400410020104B
:102DC300014864AA0CE2CFEB10F391FBF2FC12EB87
:102DD3000EC9C9C988EA8CE30DC22AB948D1CAEA27
:102DE3004DFAF0FBF4FC14FC75F3F3F371EACFD95D
:102DF300CBD128D108D0E7C3EDBBCC7182ABCBFFDD
:102E03007AF71AF79DFFDEE6DACD32C40BD387DB00
:102E130025E345EB86E345CA21E325FC4AFC6BE346
:102E2300C9D368DB89DBA9FC8DFC6DEB8ACAA6BA22
:102E330003A140A120B223A2A78B0C72D0527132FE
:102E430013114F42F38497C5DADE5AD5F7C5B6ADF1
:102E5300B68D756513444F44703C2E33EE2BCD2352
:102E6300AC238C23AC23CD1B6B2BAD236C12A9128B
:102E7300891A891A68124812A9022601E502271B3A
:102E83000A2BAD236D128A2B0C2ACB3B0D5BB0743E
:102E93003373F21906316818A40822002008821837
:102EA3000238029949CA4EEB51F391FBF2FBB1EAA6
:102EB300CDDA2BEA8CFB90F36FD22AC148D9EBFA17
:102EC300AFFB72FBF4FBF3FC75F3D3F351F2AFE109
:102ED300CBD128C8E7C0C6DC0DC38AAAE7ED10FE34
:102EE300F8FEF8FF1AFF7CE5D5CC6ED3CAE3A8E35E
:102EF30045F386FC29FC2AF347CA44C284DB89ECE8
:102F03004CEC8EEC6EEC2DDB4AD2A8B983A8E0B969
:102F130020B0E0A8C0B1A0AA868AAA6A4D6B33424A
:102F230093198F19AE3A8F6BB0A514AD34A51384E2
:102F3300D25C0F3BAC1B2A1AE912880A470A270AFC
:102F43002701E601C601C602061268126812481A72
:102F53008922CA1A891A891247018401A512892371
:102F63002B236C1B0B0249232C1AAB226A4B4E4BAF
:102F73000D426B18E6210600020001002118A32868
:102F83002240029949D28EEB51F391FBB1F30EE249
:102F93004CEA4CFAEEFB90DA8BC188D189EA4DFBFF
:102FA30010FBB3FBF4FC14FC55FBD3FB51FAAFE16C
:102FB300CBD128C907B8C6DC0CDBEBD3CADC2BECBE
:102FC300EFFEF8FF5AFEB8FE36DC2DCAE6D2C4EB9C
:102FD30005FBE8FC6BFC0BFC2DDB09B266A28692B9
:102FE3008792A88A6789E699A5A985B964C984D90E
:102FF300E3D9C2C9A0C20299C392487A4C83735AD7
:10300300F3537553B453B1118763CF74306BEF4BE4
:103013004C2247128712671206120722693B0B4B99
:103023008D53AE53AE538E432C2A6911E712071208
:1030330028122812481AA922691A481A6912480A3A
:10304300692B8D2BAE02690A69128A0A082AAB32F0
:103053006B196708A40001000100210042188330A6
:10306300025844B20CE330EB51FB71FB71F2AEE159
:10307300EBEA0BEAADE28CC9C9C147D9CAF26DFAD2
:10308300F0FBB2FBD3FC14FC14FB92FB11FA8FE9A7
:10309300ABD929C927C127F46EFCCFF44CD368AA56
:1030A30085DC2CFD51FDD3FD31EBCAD264D222E283
:1030B300A4FB88FC2BF40CCB0AB2CA924869E651F4
:1030C3008541654966616679469946C1A7D1E7D9C5
:1030D300E5DA04DA43CA22B204BB2BC432BCB69C81
:1030E300D8B63DA65C541111C753AE432C32A92A5E
:1030F300681A063309436B85339554A5D6BE79D632
:10310300FBE73DEF7EF7BFE77EB618953474B24B0D
:10311300AE330B22CA12283ACB3AAA32AA120801BA
:10312300C6230B33CE12EB026912CB1ACB4BCF74EF
:10313300933A8B10C4004200011062084218013810
:10314300027928D2F0EB51F371F330FB0FF26DE10A
:103153008AD989DA0AD20AC988C947E20BEA2CEA72
:103163008EF351E371EBD2EB92EB11FAD0FA4EE10D
:103173006AD108C948C167FC2CF40BDB27F40AE3C6
:1031830088D2E6C285CAE7DB08C1E3B0E0C140E20A
:1031930084F348D2C7A1E589A76105306320842160
:1031A300072128316A520C618A71289168B1E8CAF3
:1031B30027DAA7D265A961CB4AFD34FF5EFF1FF76B
:1031C3005FF7FFBEFD09C72ACB540F2A892A68532C
:1031D3008D7CB1B6B8D77BDF7DDF1CD6DBD67AD644
:1031E30039D619E67AEEDCFFBFF79EF7DFE7BEBEFE
:1031F300FAAEBA8DF65C0F5B2D31A73A495BCF432C
:103203006D22AA232C2BAE024802892B4D7D55CF6C
:103213003D5B6F0001002200011083082110004074
:103223002391CAE351EAF0FB71EAAEEA8EEA4CC994
:1032330048C127C9C8C9E8C187B946D1E9D1C9D2AC
:103243000BE2EFE30FE350E310EA8FFA6EF9EDE1DF
:1032530029D0E7C927C967EB25FB87F366FB87F30B
:1032630005F306E244D1E3C982C941B8E0C140DABB
:1032730044DA86B9E3916350C438C728C818C9082B
:10328300CB114E2A324AF56B7673337AAF820A9AA0
:1032930028B288BA46A1E5CBF0FEBDFF1EFF5FFF53
:1032A300DFEFBFA5B709444B6C2A68430B8D13CEE0
:1032B300DAF7FFFFFFEF9DDEFBC5F7DE9AEEBBE615
:1032C30039DDB7C4F4CD76F6FBFFDEF75CE77CEFC0
:1032D300DEE7FFEFFFDF7DCDB7AC52BDB7C69A95F2
:1032E3005532CB330C43EF02A91B6D02084BCFC6FB
:1032F300DB7C31004200210000084218A320624019
:1033030063B2ADD28EE26EEA6EFB10D1EAC1E9B9C7
:10331300E8C228A9A5992388E2C2A9CA8AB9E8B94B
:10332300A8C1C9DA2CE26DE20CE1ABF1CBE108E90B
:1033330049D8E7E168D947C221D282EB04F305EA11
:10334300A4F284EA02EA23E1C2D182C141B983CA69
:1033530046BA46A9E59207518A314B18EC10ED00A5
:10336300CF00F011D43AF863FB7C5B841793F4939A
:103373002F8A299A289228C474FF5FFFBFEEDDE6E7
:10338300FDE75DA59619852A275B8DADD6DF3BDF6B
:103393001BDEDBE6DBDE9AD638CDF8EE7AFEBBFE2B
:1033A3005AFE19ED76DD34E5B6FF1BFFBDFFFDFFC9
:1033B300DDEF7CF7DEF75DE5D8DD97DE39DEDBB6E2
:1033C30018536E2AAB43EF23AD02EA0AAA332C6CDF
:1033D300119D1508A308621083086218C339245984
:1033E30046AAACC20BD1CBE1CBD1CAD28CBA49C36A
:1033F3000B91C5894258009A25F4F1FD32D34CB1A3
:10340300E7B187C9C8C988D9A9D968E1A9D127D1A2
:1034130027C0A5D967E9C9AA43AA22CAC5C243CA14
:1034230002DA23D1C1E203C961B940A0E0A163BAC2
:10343300C9C3ADAB6C8B0E6AF239D118EF10F0082B
:10344300D100B109542A3742F863997BF9B53CCDD1
:103453009CB456A37182AEA413CDDAF73EF77FE78F
:103463005EE77DDF7DD71BB617CEB9DF3BD6BAC586
:10347300D6CDF7DE79E67ADE39F69AFE9BFE5BFD62
:10348300FAFDB8FD56D410C3EEDCF1EDB3FE56FEE3
:10349300D9FF3BFF9EF6BBD556EE5ADE7ADEFCD64D
:1034A300DB849232AB43CF2C0F0288238D2B2B3A34
:1034B300CBA57639E8002108C3088218E3314559C2
:1034C300469A4AB9EAD1CBE20CD1EACA6BCB4DECAE
:1034D300F1FEB7D46D50A0DCCFFE14FDD4F4F1DBC4
:1034E300EEBA89B9E7B9A7C1A7B925C166C146C173
:1034F30046B926D209E26BA2E89A65AAA699A2A9BF
:10350300C2CA64CA02D202B161B1E3AA25C36BF590
:10351300B6FF1CDE199C967C194A96193208D1080D
:10352300D200B200D3113319734AD773FA845AA461
:10353300DBB51CB4FBBD7B8C347BB09CD5D6DCF7F0
:10354300DFEF9EDF5CFFFFFFFFEF7CD699CE17DE38
:1035530038EEBBF6DBEE7AFEBBFEFCFE5AFDFAFD4F
:1035630078FCF6F4B3C30BBAC8C348C369BBAAD487
:103573008EFE16FEDAF5D8CD14E639D639E71CDE11
:10358300FCAD97534E438E23AD02EA1B6C1AA93A46
:10359300CB7C10736E0000000008C331C75A497218
:1035A30049A2CCCACDD26CDAADC22ADBAEFE16FE7E
:1035B30035FF38E5D2BC6CFE54FE34E571FDD3FE15
:1035C30035F4F1DBCDD36BC288B9E6B9E6B9E7C20E
:1035D30028D2CBE38EDB6EEDF7E574DCD1B34AAAD8
:1035E30065B285A1C19960AA44C348DC8FF617FF71
:1035F3009EFF9FBE1B84987C7C5B7B32371134001B
:10360300D300B200B200B109123A966C1B4B376378
:10361300D9951E7C5C94FB7C549D35CEDBEFBFFFBC
:10362300FFFFFFF79DEF5CEF1BE6BADE59EE9AFE54
:10363300DBFEBBF67AF659FEBAFEDBFE19FDFAFD98
:1036430078F4B5F451CB09D328DB46DBA6CB45BBD5
:1036530006CBCBECB2FDB7DD76DDD8D618EEFCE6B3
:103663007BD6198432430C2B6C1B6C028809E74A06
:10367300EC736FA493522A1062108220E44186599E
:10368300A771A79A2AAA2AA1C8AA69F553FE56FECA
:10369300D6EE95F716DE32E632F694E5D1E5F2FE84
:1036A300B5FEB5FE13FD50ECCEE42CD38BAA878177
:1036B3006389C6922881A7E619F65AEDD7F5F6E590
:1036C30031F571ECEEE4EEF591FE54FF5AFFDEFFA7
:1036D300BFBE1B8D188D1B6C3B641C4B5A2A1609ED
:1036E3001300D200D200F211523276537932D65BF4
:1036F300DA74DE3B173AD45BB2BE7AF7FFF7FFE723
:103703005DEF5DFFFFFFFFDE79E659E638EE79F600
:103713009AF639F639FEFBFEBAFE99FE3AFE5BFDD8
:10372300B9FCF5F430DB29FC09F3E6FC46F447DB8E
:1037330086B265C2EAFD96EDB7CD55D5B7EE5AE52B
:10374300D9E61AB4F55B2D332C2B6C0A882ACA846C
:1037530072CDB8D5B8E5F95A0A28C4182128A3416F
:10376300043000400038003000C40EFF39F6B6CDF7
:10377300D1DE74FFF9FF57E653E673CD90D5D1F64A
:10378300B5FEB4FE73FE32FE32FDD1ED0FAB284021
:1037930020300030002800DDDADDFABCF5FF3DFF04
:1037A3001AFF39FF17FF58FF59FF9AFF7BEF3CCEF3
:1037B3009BA57884B784D96C5A5C1A4B993AD72263
:1037C3001511730132011119D332D72A9522742AA4
:1037D300D61A741A543B55A5FADF7DE7BEF7DFF717
:1037E300BEF79EFFDFF6FBCD55DDF7EE18F659FE6B
:1037F300DBFEBBFE9BFF1CFEFAEE99FE9BFE5BFD10
:10380300B9FD36EC2FDB68FC48FC24FC44FC65EC7A
:1038130006BAA4BAA7FD95F5D7D555DD97E577ED9B
:1038230058F579D517838F430C332B22CA4B8DC59B
:10383300F9FEFDF61BFF1FFE5BB43361C940C449AB
:103843002549456A2859845183D592D5D2E6B5D600
:1038530012DE53E674EE95F716DE53B52FCDF2F76D
:1038630016EE93EE52F672F5F0F5F0F5D1CCAE51BB
:1038730021200020412062B4F79C54628CEEBCFFEF
:103883003DFF9CFF7BFFDCFF7BFFBCE71BD6BAE75A
:103893003EE77FB61B7C767CD953F743353B363BFB
:1038A300172275099301112A962AB600CE1A3333CB
:1038B30016014F01902230B67CEFFFEFBFFFFFFFF1
:1038C300FFFFBEFF7DCD55D555FE59FE9AFE59FE2D
:1038D3007AFE59F639FE99F6D9E678F6BBEDD8EDBE
:1038E30057FD56EC4FDBA8EBA4FC64FC84EBC1E36F
:1038F300A4CB04C308FDF6FE79EDF8EDD8DD16ED93
:1039030017ECF7D4D693B0532C330B22893AEBCE72
:1039130039D598E598F5BAFE1BFE5CF5B9CCD5D53B
:1039230077CD75BCF35A465A86EF17EEF6C5B0D578
:10393300F2BD0EF6B5F6D6EED6F717D633D613EE9E
:10394300D5F715FEF4FEB2F610EDCFFE32E5D262E6
:1039530025184008000001420B4A4B4A4BA516F7B5
:103963005FFFDFF75DFFDFEF3CEF1CEF1CEF5DF761
:103973009FF7BFF77FE75F95586C565BF632B3222C
:10398300742AD732F8019309F42AB7229611D22A5E
:1039930073094F008B5334EFBFF7FFFFFFFFBEFFE9
:1039A3009EFF9EF67AC4D3D515E597F618FE39FE29
:1039B30059FEBAFEBAF679E677F71AEE59F63AEDFA
:1039C30057DC51EC6FCB06F405E360F401FC23E311
:1039D300A3C324CB69FDB4FF3CEE5ADD97FE3AFD49
:1039E300FAED17DCD693D1532C3B2B1A682A897333
:1039F300CFC557DDD9CCD5DCD6F578ED58E558DD04
:103A030077E6198BAD28E183CBE6F6EED5E693CDC9
:103A130070BCEED591FEF7EE75DE34FFDBFF79DE89
:103A230034EEB5F6B3EE51F610F610F611E5D27A90
:103A3300A8100010430843196708C500638412DE09
:103A4300FECDFAFF7FD63BB4F6BD37DE5BFF5EFFEC
:103A53009FEF3DF77DFFFFD75E7CD6641532D23BE7
:103A63001622B60A152AFA22B92AD82A762A5432F5
:103A73007408CC004A6374DEFEF79FFFDFFFBFFFCD
:103A83009FFF5DEE19CCD4D515E596F5D8F5F8FE74
:103A930039FE7AFE7AF638E637F698E5D7F5F9ED8A
:103AA30057E492F46FD306DB03FBC3FC23E361DB30
:103AB30063C324B2E7DCD1FF5CFF9EF6DCEE3AED94
:103AC300B9FDDAEDD99C3242EB336B22EA1A483A5C
:103AD30049738FB556DE19E598ED99D4D6D4D6BC83
:103AE30054DD98832C20808BEBEEF6F6D5F6D5E6E5
:103AF30012F695EE95DDF4FF18E615FF5AFF7AE608
:103B030075EEB5F673EE11FE10FDF0F5D0EDF28310
:103B1300091000106408440061008221C8216894E0
:103B230095CDBB93B4C4D9B47793728B30AC94E680
:103B33007AFF7DF77CE75BEFBFC69C63D443134BEF
:103B43009911F51A581A7901B622992A5721B332D5
:103B5300134A3241D062F2DE9DFF9FFFBFFF7EFF1B
:103B63007FFEFCDD97CCB3DD35ED76F5B7F5D8FEFA
:103B730019FE59FE39F5F8EDD6F5F7ED76FD98FD0A
:103B830057F4B4FC70DB28DAC3F343EB42E322E3DC
:103B9300A6BAE5AAA6E553FF9DFFFFFFBEFF5EF6AB
:103BA3009BEE3ADDD99CD34BAD2B8B1B2A0A881194
:103BB300E62A49534D7C10945293D08B2FCCD6CC0C
:103BC300B6DD5861E82000AC2DFEB6F653FE94E650
:103BD30013FF99FF79D5F4F697EE36FF5AFF9BEE64
:103BE30076EE75F674F632FE11FDD0ED6FFE13938B
:103BF3004B10001864082422883B0B2A29320A310F
:103C0300499C15D55CC4B9C458ABD5931182EFA4B4
:103C130053D638F77CF79DE75DEFDF8CF842D23A55
:103C2300B522363B3C11D71A58223721F5323429B5
:103C3300B0316E396D6290B537E6DCF71DEEBBFF30
:103C43001DFF1DE5D8D4F4DD15E556ED76F597FD9A
:103C5300B8FDF8FDD8F5B7FDB7FDB7F556FD78FD0E
:103C630057FCD5FCB2F38BDA64E2C4E2E3E324CB82
:103C730005A284BBABFEF9FF7CEFBEF7DFFFFFFFBE
:103C83007FF6BCDE3AB5F864B1234B0AE912C912D8
:103C930068122811E711E7328929A741A8B495F6DC
:103CA3003CCD1738A32820AC0DF655F612FE94E54B
:103CB300F2FFBAFFDBDE96DDF4FEB8FFBCFF9BEE3E
:103CC30077E635FE95FE53FDD0FDCFED2EFE139323
:103CD3002A1000186408444BCC53CD2A286BD041DA
:103CE300CA8BB3FEBFCCDAABB6ABD69B747AAF72DA
:103CF300CE9C52CE39EF7EF7DFE75FE77F5B34116F
:103D03004F2A552A772A78329832773A964AD5102D
:103D1300AB084828EA41CB7B90D65AFF5EF6DCFF1E
:103D23001DFEFDEDD8D4F4DCF4E4F5ED16ED36F527
:103D330057FD77FD57FD36FD77FD77FD57FD57FDA1
:103D430016FCD5FCB3FC0FD225DA85E2E6CAA59AA8
:103D530003AB07EDB3FFBCF77DF7DFF7FFEF7EF7AC
:103D63007EFF9FF75EDF5D7D54232A0AA912C912E5
:103D73006812680A681AEA22EA1A4829A8734FEEF9
:103D8300BEB495200138C28B29F634FE33FE95F676
:103D930054FFBAFFDBDE96EE55FEB7DDF5E656EED1
:103DA300D8E655F654FE32FDCFFDAFF56EFDD18A50
:103DB300C8100010630864224722067C91638F5A5F
:103DC300EEC57AB4D9B478A3D682D269EE61ED6236
:103DD3002D72EFA495D65BF79FE73DF7FFA57B32E6
:103DE3003100AD00CF199309311992323242B30039
:103DF30007004610A700023188A4D5EEDCE67BE677
:103E03003AEE39DD77CCB4DCF5E4F5ED16F516F4CE
:103E1300F6FCF6FCF6FD16FD16FD16FD36FD36FC2A
:103E2300D5FCB4FCB3FC51E30BC1E5B1A3C2C7BBE2
:103E33006AD4F0FF39FF9CFFDFFF9FF7BEEF7EFFE1
:103E43007EF73EE6DCEF7E9E172B2B12A912A912FA
:103E53004812890AA91B4B238C338D2A6A3A0AC557
:103E6300DA9C53100028C272C7F675FE74F5F2FE91
:103E730054FED7EEF8DE96F6B6D59262668BABEEBD
:103E8300D8EE96EE33FE32FDCFFDAFFDAFE52E72D9
:103E9300241000108208A4428831E6740F632D3188
:103EA30088AD37CDFC9C568B946A9051CD51AD5162
:103EB3008C51CD8B73C579D69BE75DEF9FE75F9DF3
:103EC3003B218E112E00AC196F00CB21CE6BF50870
:103ED300E700241927192639C983F1BD77BD56BDDB
:103EE30016CD76D556CCD4DCF5E4F5F4F6F4D6F459
:103EF300B5F475FC95FCB6F4D5ECB4F516F516F4EB
:103F0300D4F4D4FC92FC51FC10CA89B227E490FE8D
:103F130056F6D8FFDBF7BCFFDFFF3EF75EEF3DF75A
:103F23001DE67BCDB8E6FDB639330B228922AA1AEA
:103F3300491A89024802881B8B2BAD2AAB21E98CD5
:103F4300B58453004110A05285DE74F694EDD1F68A
:103F530034AC2D9C4EDE35E634CD7028C04182D67C
:103F630015E696E633F632FDCFFDADFDCECC4A59CC
:103F730060182008610082424752A918C239C8411B
:103F8300E99CB59C969C566AD15A0E414C412B49EB
:103F93002C518C6A4F8331CE19E6FCF77FEF5FEF2C
:103FA3007F9D1B52D229AD29AD424F7C15A57A299D
:103FB300894A6CB5D8DEFCD6BBDEBBDE9BCDD8BD53
:103FC30056CD77D577C4D5D4D5DCD5E4D5ECB5E4D7
:103FD30053E413EC33F474F494E473F4F5F515F447
:103FE300F5F4D4F493F452E3F0FCF4FD55FE99FF99
:103FF3009DFF7CFFDDF7BDFF5EFF7FFF3ED5B8DD94
:10400300B8EE7BE65BF71DA576328A32AA2AAA129E
:1040130008124902480B0A1BAC1B4B1A8A22296B54
:10402300F17411006110C239C3C5B1F694FE93FE59
:104033007459814962CD92D5B2F6B549A230E0BD3B
:1040430031E635E613EDF1FDEFF58DFDCEB3A7486F
:10405300E02020102008205AA96B4C0000102131C9
:10406300068B92AC57939561F0514E514D40CB4125
:104073000B516B516A6A6CAC93CD97DE7CE6BEE65E
:10408300DFE71FDEFFD69EBDDBD65ED63EA4B87B40
:10409300528BB2C597F73DFF9EF77EFF9FF71DE654
:1040A300BCF6FDF6DDF69DD578DD57D4F6D494D471
:1040B30073DC73E493ECB3DC10DBF0EC93F4D4EC3B
:1040C30074FC75FC95F413E412D432E596FEFBFF01
:1040D3003CFF5DFF9FFF9FFF7FF6DDE5FAE578F587
:1040E300DAFE7CFEBCDE7AC6796C102A6922891A54
:1040F3004901E702480AEA132C12EB22CA22694B50
:104103004D73F018C410621840A42DFEB4EE51F69E
:1041130072AC2A41009BCBC571CDD38B8A4963BC5A
:104123006FF615F613F5D1ED8EF5CFE56DBC48931B
:10413300257AA56A2559A43142316208003964629F
:104143006A8B909BB393326A0E594C512B512A724E
:104153002C8B0E6A29494472899BF0C577D5FBD60F
:104163001CD65CD67CD67CE6BDD61CBCF9A416A3B3
:10417300F5B4B7C557C597F73DF77EFFBFFF7EF789
:104183003EF73EF6FEEE9CCD98CD57CD16CCF5D43A
:10419300D4DCD4E4F4ED14FD14ECB2F4D4F4D4E49C
:1041A30033E3F3F435F475E474C433BD15CE18CE9C
:1041B3005AD67BEEBEEEBDEEBDD5F9DD58ED78FDEA
:1041C300BAF5D9EE3AEEDBDF1BB6175BAE22482A0F
:1041D300AA1A8902270AAA12AB334D2AEA016442BA
:1041E300EB7C310802208420417B09E632E610FE95
:1041F300D3DDF09389BCF0DE55C592D5F4E5F5ED3A
:10420300F5D531EDB2F5F2F610FE71FEB1F650EED2
:1042130010F612F613F5F3208028C06264A46D9C97
:104223002D7B0972A97AAA6A084925490459648B26
:104233000ACD10B46C7285598372688B6FA474B500
:1042430038C5BAC5B9BD98B5189C3583338B34AC22
:1042530058D59CD5DAC557EF1DF77EFF9EF75EEF65
:104263001DEEFDDE9CD61AD5D9DDF9EE19EE39F532
:10427300F8ED96E534DCF3F554E4F3E4F4E4F5E423
:10428300B5E495DC34CBB2DCB5BC73ACD4A5149CDB
:10429300F5A536BD99CDFABD97BD36D557F5D9FDF0
:1042A300FAFDF9F67AFF3CD6BAE77DA5953A69118E
:1042B300651A08122801861A4A11E811E721E76BEB
:1042C300CFA535104330E518004963BD0EC58FEE09
:1042D300B3D633A46E9C4F83CC734A8BEDBCF1EE03
:1042E30056FEB7FF17FEB5F672F691FEB1FEB1F6B4
:1042F30072F632F613F5F372C372C3D5CFEEB2C5BD
:104303004D83257283726459A140E048E051407A9D
:1043130082C4CAD52AA3A55981596359A6622A72B0
:10432300CD7B4F7B4F732E5A4C622D622F7AB29BFB
:10433300D6C51ADDFCDE3BE69AF75CEF3CEF1CE6E4
:10434300FCE6BBE6BCDE7BFF9FFF7EFF5DFF1CFE42
:10435300DAFEBAFED9FEFAFE99FE79F5F7DD55DDF0
:1043630015ED57ED37DCB5DD36CD77BDD7A5968492
:104373009373F17BD28BF39432B4F4DD77F5B8FD0C
:10438300D9FE3AFEBBF6FBDEBAE71BE73C9CD3291A
:104393006619242A28118621C821C84AEB7C309447
:1043A300B2C5D749A8182118204983ACADDE53FF05
:1043B30078AD3083AC5AA918E10840080018206A88
:1043C300A8DDD4FF38EE53FF14FED2F6D2FED2FEA0
:1043D30092EDF1E591ED91B468A406FEB0F6B0E676
:1043E3002DD58BCD4AB4A7B467AC05B446C4A7CCCE
:1043F300C6EDA9F609D4E782627A656A0651653883
:10440300E5390539464167416851AB61EE72308247
:10441300D2A3D5C4F8CDB8BD95DEB8E6B9EF1AF787
:104423005CF75CFFBEFFBFFF7DFFBEFFBEFF7DFEEF
:10443300FAEE36D573CD12E5B5F678FEFBFEDBEE6C
:1044430039E5B7EDB8F619F69BFF5DFFFFEFFFD730
:104453005EBE7BB5BAB5589452B4D4D536ED57F594
:1044630077FDD8FE59F699F71BCDF7EEDAF6FB8BFD
:10447300CF312529052946420A9CD5C619C5D79CA3
:1044830091BD5572CB10004985B4F0FF38FFD9CEEA
:104493001321015289A51352C918A0188028C020DE
:1044A3008093EBFF78FF56FF75FF33FF12FF33FE58
:1044B300D3FE52F5F1FDD2B405B425FE8EFEAEFE59
:1044C300ADFF0EFF0EDDE9EE0AEE0AF60AFE6BFE05
:1044D30029FDE8FE07E505B385AB8892E869E65157
:1044E3004549664986494651885148514A596C7233
:1044F3000E8AF09BB2A431ACAFD654DE55EF18FF51
:10450300FCFFBCFFFEFFFEFFDDEEDAC574A46F9B6C
:10451300ED9BEDA40DA42E93ACA42FCDB5FF7CFF92
:10452300DEFEFBF659FEFBFEFBFF9DF7BDEFDEF75C
:10453300FFF7FFEF7FEEFECDF9CD56D4F5ED36FD57
:1045430077F577F5F8FEBAEE79E658E638F6BBE686
:1045530019936F410530C593D2F6FEF6DCDDD7C55E
:1045630034C4F3938D5143CD52FF18EE95EEF6C547
:10457300F318C021034A4931641060082020A03198
:10458300219C2CEEB5FF35FF34F6F2F6D1FEB1FED9
:1045930051F5CFED6FF54FB3A4C426FE2DFECEFE2D
:1045A3008CF66AE608BCC3DD87F629F609FE4AFEE7
:1045B30029FDA7FDA6ECE5BB63BB87A2E679E46111
:1045C3008469E66A06598561A6596759285928619D
:1045D30069720A82AB8B4AAC8CDE31CDF0EED4FF2C
:1045E300FAFF99FF79E6D8C5D4ACD18BED8BCCA477
:1045F3006FBCF1BCD0B48FA40E8B6B7B6BB511FF7A
:104603001AFF7BFEF9FF3AFF7BFFDCFFDCE79BF73A
:10461300FEFFFFF79FFF7FFF1DE5F8DCF5ED16FDBD
:1046230058FD98FDF8FE7AEE38FEFBFE9AFE39FE41
:10463300BCEDB89B707A6CE5BAF65BEDF9E576ED07
:10464300B5D512CCAFABECDD91FEB5F674FF37F602
:10465300F6732928C1080008001860100031218B67
:10466300AAE654EEB4EED4EED2EEB1F6B1FE91FE6C
:1046730051FE10FDD0FDD0A302A2E1C405EDA9FEB9
:104683006BFE6AE5E8BCA2BC61EDC7FE09FE2AFE2B
:1046930009F545F4E4DC02B301CBA6BB67820461F0
:1046A3002269A37225720571E57A277A0971A759E0
:1046B30004590371E58AE6BCC9DE2DC56BE670FFBC
:1046C300B6FF56F715D633ACEF942D8BABA46ECD56
:1046D30093E635CD73AC6FAC2D93AB6A866AC7ACEA
:1046E300AFDDF4DD51CCCFE5B2FEF7FF9AFF9AFFC1
:1046F300FDFFDEF75EFF7FF6BCEDD9E4D5E454FCA5
:10470300F6FDB9FDF8ED97EE18EDF7FE39FE7BFEE9
:104713001AED78DD16D4D6FE5CE538FE3AED96DC6C
:10472300F2DCF0FDB2D4CDF5B0FE32FE73FEB4FE82
:10473300D6DE1393AB622652055A4672C8AC6EC5D9
:1047430030F6B5F6D4F6B3EE91EE91F671F630F598
:10475300EFFDAEFD6EFD4EB343AB43C3E4DCE6DDDC
:1047630047D525D545E5C7D505DD26E526ED27EC57
:10477300E6E484DC02D3C2CB62C323B2E4714071AA
:104783008279E37A2382448A6582459AE98A478259
:10479300258224B3C8EDCDFECEE609BCE5DE0BFED3
:1047A300F0E64FDE30D6119C4B93EB9C2CC552F6B2
:1047B30097FEB8D5B4B44F9B8A93487AA659E26A58
:1047C300449B48B388BBC9B388DD0DFF16FF98FF30
:1047D300DBF73AFF5DFF3DF65BCC95DC75FCF7FC40
:1047E300D6FD17F556F5D8F5F8EDF8F5F8FE3AFECF
:1047F3003BFDD9E557DCF6FE3CFDB9FD98FD96EC93
:10480300F1DC6EDC8CE4ECF56EFDCFFE31FE52FE86
:1048130053FE94FED5FED6E614E5F4F655F695FE62
:10482300D6FEB4EE31F692EE51F671F630EDCEFDD2
:10483300AFFD8EFD2DFD0DCC27DCC8F58AFDEAED1D
:10484300C9E5A7EDC8F609EDC8E547DCC5D464D4CE
:1048530044DC44E444E424BAE1BAC2B2C3796081DB
:10486300C282038222822282028A23A2C7A2A69A3A
:10487300A59282D4A8FE6CFE69EDE6D545CD46EE41
:104883006CE62DEE90C54D9C099BEAA44DC531E520
:10489300F5E5F5C4D1A3CD9B298AA66A2361E16915
:1048A300E18AA4C3A7DC09CBA7BBA7D4ECF653FFCB
:1048B30099FFDCFF7CF69AFE9CD4D6ECB6F4B6FCEA
:1048C300D6FCF6FD57F597FDF8F5F8FE19FE3AFE0E
:1048D3001AFDB9ED98ED58F578FDB9FDB8ED14E47E
:1048E30090ECEFF52DDC8AED0BFD8DFDCFFDB0FDDA
:1048F300D1FE32FE31EDF1F654F635F654DD70CCCF
:10490300CDD50DD52DDD8EE5CFEE10EDCFE56EF5D2
:104913008FFD6EFD2EFD2EF58BFE2DFE8EFE6DFEA4
:104923004BFE4AFE6AFE4AFE4BF5EAF589F549F568
:1049330029F508E486DC25D3C4C344B2C47940799D
:10494300A182238A638A838A4292629A84A2C5AB34
:1049530004A302ED69FE6AFE27EDA4EDC5DD65F64D
:104963006BEE4CF68FB4AA93A79BC9AC4CBCCFC5D6
:1049730011BCB0A3CD8B098AC771E359806A016961
:10498300A081C0D3E8F48AF48AD3C7B386ABE9B471
:104993008DEEB7FFDDFF3CEE39CCB5ECF6EC54FC05
:1049A300B5FCB5FD57F556F5B7F5B7FDD8FDF9FDDF
:1049B300F9FDF9F619FE3AF598FDD9FD97DC92D485
:1049C3004EF550FDCFF52CECEAE4AAE4CCF54FF517
:1049D30090F58FED6EEDAFE591F613FE34BC0A71E1
:1049E300C18242AB87C48BDD8FEDD0E5B0E56FEDBF
:1049F30070ED4FED0EF50EF5EEF5EDEDABE58AE559
:104A030089E588DD68D507DD07DD28ED6AFDABFDA7
:104A1300CCFD8AED08E486CBC4C364B30579A082D8
:104A2300038A648A838A6292A39AC392229A62A2B5
:104A3300C2B342FDEAFDE8F5E5E542F606FE69FE8E
:104A4300CCFE8DE60DA4078B4693889BEBAC2DA47F
:104A53000D9B8C82E97A678245616151207A4361BB
:104A6300607140E428FCCBF428EC69D429B3C893E3
:104A730089E696FFDDEEDAAC92A3F1E4F6DC33F4DB
:104A830074EC33FD15ECF4ED75ED76F576F5B7FDC5
:104A9300B8F5D8F619FE5AFE7BFE19FDB7E514D416
:104AA3006FD48DE50CE50BDCAAE4EBED2EED2FE5E1
:104AB3002FE52EE54DE56EEDB1E570EDB1C46CA3C8
:104AC30047C42AD4EDCCACD52FDD91E5B2E592ED08
:104AD300B2E571E50FE50FCCEBC4AABC68BC67BCBB
:104AE30046AC04A383A3629B02A322AB63BBC5CCE6
:104AF30026D487DCC8E4C8D426C3A5AB0569607196
:104B0300E2824482848AA3824292838A228A019225
:104B130041AB02FDEAF586E543E543F607FEECFE0D
:104B23008CFECECD4A8B448B468B479369938A93F5
:104B33004A82E972876A2669C4512151617A84598C
:104B4300406940E429FCAAFC69F469D429B3E983E8
:104B530068BD93BDD5840F5ACA730CD514DC73ECAE
:104B630093E432F514E4D3F595ED75ED55F596F52B
:104B7300B6F5B7EDF7EE18EDD7ED97EDB7EDB6D483
:104B8300F1C44DCC8BD4CBCC8AF5F1FE75ED93D526
:104B930010DD50D54EC4CBDD90D52FF633FE94FEF9
:104BA30053FF15FF16FE74FE96FF18FF3AFF3AFFF8
:104BB3005AFF5AFF19FF38AC2AAC2ABC6ABCAAB404
:104BC30049A3A6A365A3859AE392C392A28A81927D
:104BD300A19B02AB63B3A4D4A8CC68BC098A858A21
:104BE300C78AC782A47A6382638A4392648A2281D2
:104BF300E09280E508DCE5DD03F5C6FE29FEACEDB9
:104C0300EAFF10C4C97AA28B268326830782E87A37
:104C1300C772876A2661E55143492259C36A4451E1
:104C2300207180E409F429FC4ACB059AA382E5624A
:104C3300A66B8B6BCD4B2B32275AC9C513DCF3E420
:104C4300B3E451ECD2E4B1E533E512E4F2ED33F52C
:104C530075ED95EDB6E5F6E5D7EE18F639E5B6CC84
:104C6300F1C4CFCCEDC4ABCD0DEDF2FEF9FEFAEEFF
:104C730057D572C52ECD6EE613E612FF16FF36FE2C
:104C830073FE73FEB5FF38FF19FF7BFF9CFF5CFFCC
:104C93007CFF5BFF3AFF5AC4F0CD51DD92D570CC57
:104CA300EEC46CBC4BBC2AB3A9AB68A3269AE492AE
:104CB300C38AA1828082609B02B3E7DD4FD50FDDFB
:104CC300B3D571B44C9B88A3897A0379E381E281DC
:104CD300C19261CC66D4A5DD05F5E8FE6BFE6CF6EA
:104CE3000CFEB0B44872627AE57AE67AC672866AD6
:104CF3004561E459A351634102498462665A0449F8
:104D0300208243DC09EBE9CAE5918071806A435A4A
:104D1300E742C8432B434C22464287942EBC70CCB7
:104D23000FCBEECBEEBB8CC3EDBBEDC3EDCC0ECC0A
:104D33002FC44FC490C4F2EE37F6BAFEDBF659DD4A
:104D4300D5DDB3D570B4ACE612E635FEFBFFBFFF8D
:104D53005DDE36CDF3DE74FF17EE74F673EE12EDFF
:104D6300D1E5D0DD70E5D3FED9FF7CFFBEFFBEFFEA
:104D7300BEEF7DE71ADF1AF698FEB9EE56D592CD4F
:104D830010CCEFC48DB3CAABAAA3499B079AE69292
:104D9300E58AE482827A4061808AC4BCADCD30FE6C
:104DA300F7FFBBFFBAFF99C4AE618258E069618225
:104DB30002A2C3D466DCE7E526ED67FE4BFE6CFE7C
:104DC300AFEE2E9BA56A6172A472A572866A4559DD
:104DD300E451624921410138E251C572C859C351B6
:104DE300009AA5E40AE3E9DBA891E0590038E03929
:104DF300E311A309A50184222529E462E88B6A93C0
:104E030029A34A92C8824592E89AE89AE89AC892F6
:104E1300A78A878AE88B4AAC4FC533EE79FF7DFFBB
:104E23009DFF9BF6F7D5F3E696FF7BFFBEFF3DF7AD
:104E33001BFF7AF736DE72B4CCCD2EE5F0E58DD5C7
:104E43002CCCEBBC6CCCF0D594EE99FF5DFFDFFF6F
:104E5300FFEFBED6FBCEBAEE58EE78E636D592C457
:104E6300EEB48CB44BAC0BA38AA36A9B499308930F
:104E730028932782A47202512049008307CD71E64B
:104E830095FF9AEF18FFBBDE1561C4592182248A6E
:104E9300429AC1DCA6E4C5F567FDC8FE4AFE8CF65E
:104EA3000CFE8F8B0359C07AC55161516261E55184
:104EB3006340E140E038A0518372A87A6648807964
:104EC30060CB47D366E3A7C304AAE3618030E0293C
:104ED3006121E31A263AE9534A7BECA551C634BD56
:104EE300D1A4CD944BA46BC50F82E782869308723D
:104EF3000472448B275A036A666246834ADE36FF8E
:104F0300DDFFBDF75CEEFAE6B9F75CEED9FF7AF7A1
:104F130017EEB3D60ED5CDF60FFE90FE2CE568E561
:104F230047D4E8CC8AD4CED4F1FEB9FF5CFF3BFF73
:104F3300DEFFBED6BBC659CD54D573D572C50FBCE3
:104F4300ADB48CB44BAC0BA3CAA38B9B4A932993EC
:104F5300298AE7724461A161A359824100BD30E609
:104F6300F7FFFBF79AF75ADE36622661628A64928C
:104F730082A2C0ECC6F526FD87FDE8FE0AFE4BEDD6
:104F8300EAF64D82E251A051A1624551A438E241B3
:104F93000240C140A051637B097287594158A0B2B6
:104FA30064DB67CAA3E365E408BB258A8351A021B8
:104FB3004042C774F08552B615C635C695C6B4AE21
:104FC300319D8E9D4DAD8F944B8BA9728661E46AA2
:104FD3002459C262036A657AE78BABA48FDE56FF5E
:104FE3007BFF9DFFDFFF9EEF3CFF9DEEF9F6F6EEA4
:104FF30093E62FE60CE5CBF5ABFE0CFDC9ED66EDB4
:1050030046DCE6D489D4CDF5F4FF3AFF3AE677DE01
:1050130097D698C639CE7ABC6FBC8FC4AEC4ADBC2C
:105023008CBC6BB42AABEAA3AA9B8A934A93298BC1
:105033000882A66203514040C05962494193EBC5BF
:10504300D2E6F7FF7AFFFDE657728769C392859A26
:10505300A3AAC1ECC7FD88FDA8FDC9FDC9FDEAE50A
:10506300AAEE0D83034960414049A3414338E33825
:10507300E2286038C26A676AC859C459217141BAC3
:1050830085DB27DAA4EB26D2E4B2A49AE583267B58
:10509300C9A5D2BF58AED7BEB6CED6C6F5B6B3A64F
:1050A3003095AE956D9D4E842A83CA8B8B6A46617B
:1050B300E559A48B4AAC8FBCF0CDB3DE56F75BFF4A
:1050C300BDFFBDFFFFFFDFEF3BFF9CF718E674EE6C
:1050D30031DDCCEE0CF5EAF569FD89F567ED46EDBA
:1050E30026DCE7DCAAE50EF5F2FEB6F675D5B2CD01
:1050F300D3CDF5C5B7CE1AB40CB40CB42CBC4BBC91
:105103004AB42AABE9A3A99B4893288AE982E87A9F
:10511300C76A4551A14100408051217AE872C7D640
:1051230034FFBAFFDCFFDCF6988B0972048A449AD9
:10513300A2AAC1ECA6FDA9FD88F567F567F5A9ED5F
:105143008AEE0D8B444120498128C030E139232860
:10515300A23944626872C962A730A051009AA6C2FC
:10516300C7CA85D285D285CAA4CB47A32693C8B51F
:10517300D0C716B736B757AE93BED4BF14AED29EC0
:1051830090962F8DCE8D4D6BC97BAB8BED51E63059
:10519300C230A1832BCD95CD73C573C5B4EF1AFF70
:1051A3009DE71BE71BE71BDE98EF19F6F6E611EE0A
:1051B3002FE56BF5CAF588FD68F526ED05ED05E4E9
:1051C300E6DCC8DCEBED6EFE52FE73E611D5D0E6ED
:1051D30053EE97E659E65AABCAABAAABA9ABC9AB38
:1051E300C8ABA89B679B4793078AE77A8772666277
:1051F3002551A3410030A038805962938B8329DE67
:1052030034F739FF39FF19F6779B6A82248A23A280
:10521300A2AAC1E465FD48FD47FD26F526F568F51C
:1052230089F5EC9B854100410038E030E128A1304D
:10523300E26AA97B4C520631217308AC0CAB8AAAF3
:10524300A7C2C7D308C2A6C327C3E9B42AACECBE1E
:1052530052B6D3A6F4BFB6B714B733AF1296B08E17
:105263006E862E7DED858E4B67742C630A18612044
:1052730062100030C4ACB3DE37D5F5CDD6E6D9E73E
:105283001BCE78C637C5F6D677EED7EE94E5CFF5C5
:10529300EDE508F568ECE5F505ECC4ECC4ECE5E4F4
:1052A300C6DCC8E50BED6DF5EFE5ADCD0AC4EACD7F
:1052B3006EDDB2DDB5DDB79B48932893479B679BB3
:1052C300679B4793268B0682C77A866A2559C4490A
:1052D3006238E030A030A051227A4672468B6AAC25
:1052E3008FACCFCDD4DE15D5729B6A8A448A02A2D5
:1052F300A2AAE1DC05FCE6FD06FCC4FCE5F506ED2F
:1053030027F58AB3E659403040494141424143625F
:10531300686AA949C5394262E8F739FF9BDD72E53E
:1053230031FD92FD92FDB2EDB1C4EDBD4EBE51AE65
:1053330071AEF3B795AF54A712A71196F08EAF765F
:105343004D6DCB658B654C43A8432821A4002018E1
:1053530083208328848B8FFF5CFFDEFF9DF79DEF07
:105363005CE73BE73BD6B8F759FF57F672EDCEF54E
:10537300ABECE6F4E5F4C4EC82EC82F4E4F506E489
:10538300C6DCC7E52AE54BE58BDD6AD589DDABDDF8
:105393008DDD6FE593EDD5726572657A8582C68280
:1053A300E67AA572657265620459C351834121305F
:1053B300C028A030E0414182A87246494272C88B9E
:1053C300AB93EC9C4E9BED9B8B8AA78A658A02AAC2
:1053D300C3B2E2D3C4EC65FC83FC62FCA3F484E4B3
:1053E30084ED08CC677A4040A0514059C36A677284
:1053F300A851C451C4836AFFFDFFFDF73AFF5AFF6A
:105403005ADE15DE14EEF6FFFACED4AE519E519657
:10541300509EF2AF749F129F119F1197308F307E71
:10542300AE65EB5D6A5D4B4C6A1A4400C000A11087
:1054330082398739267B4EF71CFFDEFFBEFFBEFF96
:10544300DEFFFFFFFEFFFDFFFAFF76E5EFEDCCF594
:1054530069F4C5F484FCA3EC41EC61FD04F505E4B7
:10546300A4E4E6EDA9EDAAD527CCE6D547DDA9DD71
:105473006AD50BD50EDD2F4183498351E462456222
:105483004559E451A351A34942412138E030C02892
:105493008030C041625A055143490272A862476A8B
:1054A300A862875A4662056A0472048A448A22AA59
:1054B300E3AAE2CBA4E425EC03F422F463E423D4CB
:1054C30003E4A7DCE99B246180598172666A874102
:1054D3002249C4ACAFF739FFDDEF9CEF5BC6165230
:1054E300A83A0573EC536995B1A6B39EB296B1A7DA
:1054F30054A7749F129F32A7939F5197308F0F76B3
:105503006C55894D29554B6D8E43EA014200E221CA
:1055130044420820C48BF0FFBEFF9EF75DFFDFFF10
:10552300FFF79DF7BCF77AFF98F6F3D54BED6AEDDD
:1055330007F4A4F422FC62FC82F4A2FD24F4E3DC6D
:1055430062E525FE29FE4AFE6ADD67CD05D527DD26
:1055530028D4E9DD0AE50B31643164316431432930
:105563000331023123394330E130E130C0390130B6
:10557300E0392151C339016226BCB1D5D5CDB5ACD3
:10558300D1BD53ACB0A44EAC0C71E369409263AA95
:10559300E4A2A2C385F4C9FCC7EC65EC85F4E7EC8F
:1055A300E8E4E9D4CAC48A82C56204414228A07BE4
:1055B3004BDE77FFFDF77BFFFEDF5C84703A4832FA
:1055C300273A8853AB6CCF85D2AF7786526DCF7EA7
:1055D30050AFB4A75396F19F318ECF8ECF8EEF7E0F
:1055E300AD6E2B55693C674448650D4389222542BE
:1055F300C931A53165AD34FFDFFFDFFFBFFFBFF763
:10560300BFFFDEF79CE6F7EED4E650E5ABE528E412
:10561300C5EC83FC63FC83FCA3FCE3EC81E481FD28
:1056230084FE26F5E6F606DD85EDE8EDC8E567E5DB
:1056330047E547E507E5273A4942894AAB4A8A42A3
:10564300293186290320A220A13102394249A349E5
:10565300A3392141626267F6B9FF5CFF1BEEFAF7DB
:105663001BFFDEFFBDFF9BFEB7ABEB79E282019A26
:10567300A3AB04CBE7E4CAF52BECEAE4EADCC9BC50
:10568300069304726259C139203101732BBD95F71A
:105693007CEF5BF7BDFFFED71B638E4ACB21A63A97
:1056A300498CF3BED9D7DDAEF8AF377DF18692963C
:1056B300F396F2866F96D08EAF866E7E2D75EB765F
:1056C3000B7E4C75EC54E9548943E8540A43491959
:1056D300A321636B4BCE37DEBADEBBEF1DF77EFF34
:1056E300BFFFBEF75BDE96DE31D5CDE5ABED88EDD2
:1056F30006F4E4FCE5FCE5EC22F4A3F4C3F503FDB6
:10570300A4FE05F604EE04EDE5EDE7F5E9F5EAF5AB
:10571300E9E546D4C2DCE242CB4B2D5B4E5B4E4AFD
:10572300AC31C818C4082110412902396339422811
:10573300C020606AA8F6D9FF7DEEDBDE59D659F7A3
:105743005DFFBEFF9DFF7BFF19BC8E82648A63A24F
:10575300E5A2E492428A217A426A0169E159A041B1
:10576300203900396139837B8CAD54EF7DF7BFFF5E
:10577300FFF7FFF7FFCEFB9D7521C71966424A9CD1
:10578300F5E71DEF7EF7FFEFFEBEF885919EB4AF00
:10579300558E706D6B758C5CA864E9752A6D086411
:1057A300A764E86D295CC95469544A5C6B3B0732B2
:1057B30066740DB5B4D678C5F7CE18DE9BEF1DF72A
:1057C3003EF73DE6D9D614E672E60EEE0CF5E9E4B3
:1057D300E5E4A3F4C4F4A4F4C4F4E5FD46F565EDEF
:1057E30043E562E582DD62F626F607F609FE4BFE27
:1057F3006BF5A7E522ED622A49326A3A8C3A8C327C
:105803000B214810A40822000010401040396349BE
:10581300C449C5ACB0FFBDFF5DE6DCE6BBDEBBFF44
:10582300DFFFBFFFDEFFBDFF9BCD3082A58A8492E1
:10583300C49AE5926392E66A445A245A656AE77BFE
:105843006A9CCFCE56E75BF7DEF7FFF7FFEFBFEFBC
:10585300DFE7DFF7FFC6DB3AAB11252187A536F774
:105863009FFFDFFFBFF77DE73BE79BBED6AE949577
:10587300F06CEB5CA964A95C2753E65BE55BE5533D
:105883008353A46426642764496CAB6CAD5BEB84DF
:10589300F0E77BFFFDE71AD679DE7AE6BCEEFDE69C
:1058A300DCE6BBE6B9E655DE31D5ACE5CBEDC9DDCB
:1058B30026ED46FDA8FD88FD68F527FD88FDA7EDCB
:1058C30044EDA4FE66FE66FEE9FE8AFE4AFE4BFE3A
:1058D3004AF5C7E542ED82114511461947194719A3
:1058E3000710C60864084200000820080041C54AA2
:1058F3000662A9D637EEFBE6FCDEDCDEBCCE7BEF30
:105903007FEF7EFFDFFFBDFFDCD5B28AE68AC58A63
:10591300A49AE6AB88DD91FF9BEF5BEF7BEF9BEFF8
:105923007BEFBCFFFEFFFFF7FFEF9FE77FEFBFF7C4
:10593300FFEFFFEFDFA5D7114500825B0DFFDFEF20
:105943001DFF5EFFDFFF9EF75BF7DCD717A5D17C5A
:10595300CC6428646864276C486C0774077C48949B
:10596300C994CA6BA529E042E422024B69748E955F
:1059730032DF7BFFFEF79DEF3CEF1CF73DF71DE6A3
:105983007BE65AEEB9F6B7FEF4EE6FF64CF62AE56F
:1059930088E567E568E507FDEAED48ED49F569E562
:1059A30026E566FE27FE67FE67FE69F609F60AFE30
:1059B3004AFE49F606F5E400C208C308A408A40891
:1059C3008508640823000208211881104031432907
:1059D300036AEAF75CF77EDEDCD6DDCEBCCE9CEF55
:1059E3009FFFFFFFFFFF9DFF5AD5D3934893278265
:1059F3006482859B28E5D3FFBDEFBDFFFEFFFEFF5D
:105A0300FEFFFEF7FEEFBDE77DFFFFFFFFE75EEF63
:105A13009FFFFFF7DF73EF190408A38451F79FE695
:105A2300FCFFBFEEFBFF9DFFFDF7DBD6F6A5D07CA9
:105A3300AB5BA67CC9954BADEFCE71E6F3E713F7ED
:105A430034F755BD8E630508A0008011412A056314
:105A5300ADBE37E77CEF7DF77DF75DFF7EFF3EE66A
:105A63005BD5F8DDF6E614DDD0DDEDE5EBEE2AEEF1
:105A73004BEE0AE5CAEDCAF5EAED69ED4AED6BE5D1
:105A830029DCE7DD46E585EDC6F628FE29FE0AFE9C
:105A93008BFEABFE68FE26008000610062084308AF
:105AA3004408240803000110620000000018814A22
:105AB30027AD54F75DD69BCE9CCE9CBE5BCEDDE777
:105AC3009FF7FFF7BFF77DFFFDEEB69BCA8B066A14
:105AD300037A6492E7DDB3FFDDEF9CF7BDFFFDFFC3
